{
  "_format": "hh-sol-artifact-1",
  "contractName": "ZKDocsCore",
  "sourceName": "contracts/ZKDocsCore.sol",
  "abi": [
    {
      "inputs": [
        {
          "internalType": "address",
          "name": "_schedulerAddress",
          "type": "address"
        }
      ],
      "stateMutability": "nonpayable",
      "type": "constructor"
    },
    {
      "anonymous": false,
      "inputs": [
        {
          "indexed": true,
          "internalType": "address",
          "name": "recipient",
          "type": "address"
        },
        {
          "indexed": false,
          "internalType": "uint256",
          "name": "uuidOfNewContract",
          "type": "uint256"
        }
      ],
      "name": "ContractCreated",
      "type": "event"
    },
    {
      "anonymous": false,
      "inputs": [
        {
          "indexed": false,
          "internalType": "uint256",
          "name": "timestamp",
          "type": "uint256"
        },
        {
          "indexed": false,
          "internalType": "uint256",
          "name": "uuidOfContract",
          "type": "uint256"
        }
      ],
      "name": "ContractDisputed",
      "type": "event"
    },
    {
      "anonymous": false,
      "inputs": [
        {
          "indexed": false,
          "internalType": "uint256",
          "name": "timestamp",
          "type": "uint256"
        },
        {
          "indexed": false,
          "internalType": "uint256",
          "name": "uuidOfContract",
          "type": "uint256"
        }
      ],
      "name": "ContractEnded",
      "type": "event"
    },
    {
      "anonymous": false,
      "inputs": [
        {
          "indexed": false,
          "internalType": "uint256",
          "name": "timestamp",
          "type": "uint256"
        },
        {
          "indexed": true,
          "internalType": "address",
          "name": "recipient",
          "type": "address"
        },
        {
          "indexed": true,
          "internalType": "address",
          "name": "creator",
          "type": "address"
        },
        {
          "indexed": false,
          "internalType": "string",
          "name": "docSignedHash",
          "type": "string"
        },
        {
          "indexed": false,
          "internalType": "string",
          "name": "ipfsLink",
          "type": "string"
        },
        {
          "indexed": false,
          "internalType": "uint256",
          "name": "uuidOfContract",
          "type": "uint256"
        }
      ],
      "name": "ContractSettled",
      "type": "event"
    },
    {
      "inputs": [],
      "name": "EAS_ATTEST_CONTRACT_ADDR",
      "outputs": [
        {
          "internalType": "address",
          "name": "",
          "type": "address"
        }
      ],
      "stateMutability": "view",
      "type": "function"
    },
    {
      "inputs": [
        {
          "internalType": "address",
          "name": "",
          "type": "address"
        },
        {
          "internalType": "uint256",
          "name": "",
          "type": "uint256"
        }
      ],
      "name": "allContractsByCreator",
      "outputs": [
        {
          "internalType": "address",
          "name": "recipient",
          "type": "address"
        },
        {
          "internalType": "address",
          "name": "creator",
          "type": "address"
        },
        {
          "internalType": "address",
          "name": "contractAddressToVerifyBalance",
          "type": "address"
        },
        {
          "internalType": "uint256",
          "name": "borrowingAmount",
          "type": "uint256"
        },
        {
          "internalType": "uint256",
          "name": "validUntilTime",
          "type": "uint256"
        },
        {
          "internalType": "uint256",
          "name": "uuid",
          "type": "uint256"
        },
        {
          "internalType": "string",
          "name": "linkToIPFS",
          "type": "string"
        },
        {
          "internalType": "bool",
          "name": "isPendingForSigner",
          "type": "bool"
        },
        {
          "internalType": "bool",
          "name": "isRevealed",
          "type": "bool"
        },
        {
          "internalType": "bool",
          "name": "isSettled",
          "type": "bool"
        }
      ],
      "stateMutability": "view",
      "type": "function"
    },
    {
      "inputs": [
        {
          "internalType": "uint256",
          "name": "_uuid",
          "type": "uint256"
        }
      ],
      "name": "checkForDisput",
      "outputs": [],
      "stateMutability": "nonpayable",
      "type": "function"
    },
    {
      "inputs": [
        {
          "internalType": "uint256",
          "name": "",
          "type": "uint256"
        }
      ],
      "name": "contractByID",
      "outputs": [
        {
          "internalType": "address",
          "name": "recipient",
          "type": "address"
        },
        {
          "internalType": "address",
          "name": "creator",
          "type": "address"
        },
        {
          "internalType": "address",
          "name": "contractAddressToVerifyBalance",
          "type": "address"
        },
        {
          "internalType": "uint256",
          "name": "borrowingAmount",
          "type": "uint256"
        },
        {
          "internalType": "uint256",
          "name": "validUntilTime",
          "type": "uint256"
        },
        {
          "internalType": "uint256",
          "name": "uuid",
          "type": "uint256"
        },
        {
          "internalType": "string",
          "name": "linkToIPFS",
          "type": "string"
        },
        {
          "internalType": "bool",
          "name": "isPendingForSigner",
          "type": "bool"
        },
        {
          "internalType": "bool",
          "name": "isRevealed",
          "type": "bool"
        },
        {
          "internalType": "bool",
          "name": "isSettled",
          "type": "bool"
        }
      ],
      "stateMutability": "view",
      "type": "function"
    },
    {
      "inputs": [],
      "name": "contractOwner",
      "outputs": [
        {
          "internalType": "address",
          "name": "",
          "type": "address"
        }
      ],
      "stateMutability": "view",
      "type": "function"
    },
    {
      "inputs": [
        {
          "internalType": "uint256",
          "name": "",
          "type": "uint256"
        }
      ],
      "name": "contractsHashProofs",
      "outputs": [
        {
          "internalType": "string",
          "name": "",
          "type": "string"
        }
      ],
      "stateMutability": "view",
      "type": "function"
    },
    {
      "inputs": [
        {
          "internalType": "address",
          "name": "_recipient",
          "type": "address"
        },
        {
          "internalType": "uint256",
          "name": "_validTo",
          "type": "uint256"
        },
        {
          "internalType": "address",
          "name": "_contractAddressToVerifyBalance",
          "type": "address"
        },
        {
          "internalType": "uint256",
          "name": "_borrowingAmount",
          "type": "uint256"
        },
        {
          "internalType": "bytes32",
          "name": "_creatorESignHash",
          "type": "bytes32"
        }
      ],
      "name": "createContract",
      "outputs": [],
      "stateMutability": "nonpayable",
      "type": "function"
    },
    {
      "inputs": [
        {
          "internalType": "uint256",
          "name": "_uuid",
          "type": "uint256"
        },
        {
          "internalType": "address",
          "name": "_creator",
          "type": "address"
        }
      ],
      "name": "endContract",
      "outputs": [],
      "stateMutability": "nonpayable",
      "type": "function"
    },
    {
      "inputs": [
        {
          "internalType": "uint256",
          "name": "_uuid",
          "type": "uint256"
        },
        {
          "internalType": "string",
          "name": "_docSignedHash",
          "type": "string"
        },
        {
          "internalType": "bytes32",
          "name": "_recipientESignHash",
          "type": "bytes32"
        },
        {
          "internalType": "string",
          "name": "_ipfsLink",
          "type": "string"
        }
      ],
      "name": "signContract",
      "outputs": [],
      "stateMutability": "nonpayable",
      "type": "function"
    }
  ],
  "bytecode": "0x608060405234801561001057600080fd5b5060405161154338038061154383398101604081905261002f91610082565b600080546001600160a01b03199081163317909155600180546001600160a01b03939093169282169290921790915560028054909116733e95b8e249c4536fe1db2e4ce5476010767c0a051790556100b2565b60006020828403121561009457600080fd5b81516001600160a01b03811681146100ab57600080fd5b9392505050565b611482806100c16000396000f3fe608060405234801561001057600080fd5b50600436106100935760003560e01c8063950eaec311610066578063950eaec314610105578063967bffb714610125578063ce606ee014610158578063f2ba1e671461016b578063f2d8894b1461017e57600080fd5b806305c2db361461009857806316e7ffa0146100ca578063222e71b0146100dd5780634ef39e02146100f2575b600080fd5b6100ab6100a6366004610f8c565b610191565b6040516100c19a99989796959493929190610ff2565b60405180910390f35b6100ab6100d836600461107f565b610283565b6100f06100eb366004610f8c565b6102f4565b005b6100f06101003660046110a9565b6104e6565b610118610113366004610f8c565b6107f0565b6040516100c191906110d5565b610140733e95b8e249c4536fe1db2e4ce5476010767c0a0581565b6040516001600160a01b0390911681526020016100c1565b600054610140906001600160a01b031681565b6100f0610179366004611192565b61088a565b6100f061018c366004611209565b610a34565b600460208190526000918252604090912080546001820154600283015460038401549484015460058501546006860180546001600160a01b0396871698958716979490961695929391926101e490611257565b80601f016020809104026020016040519081016040528092919081815260200182805461021090611257565b801561025d5780601f106102325761010080835404028352916020019161025d565b820191906000526020600020905b81548152906001019060200180831161024057829003601f168201915b5050506007909301549192505060ff80821691610100810482169162010000909104168a565b6003602052816000526040600020818154811061029f57600080fd5b600091825260209091206008909102018054600182015460028301546003840154600485015460058601546006870180546001600160a01b039788169a5095871698509590931695919490936101e490611257565b600081815260046020818152604080842081516101408101835281546001600160a01b039081168252600183015481169482019490945260028201549093169183019190915260038101546060830152918201546080820152600582015460a082015260068201805491929160c08401919061036f90611257565b80601f016020809104026020016040519081016040528092919081815260200182805461039b90611257565b80156103e85780601f106103bd576101008083540402835291602001916103e8565b820191906000526020600020905b8154815290600101906020018083116103cb57829003601f168201915b50505091835250506007919091015460ff808216151560208085019190915261010083048216151560408086019190915262010000909304909116151560609384015260015460808501518584015192860151948601519351630ac4bdbf60e41b815260048101919091526001600160a01b03928316602482015293821660448501526064840192909252929350919091169063ac4bdbf09060840160206040518083038186803b15801561049c57600080fd5b505afa1580156104b0573d6000803e3d6000fd5b505050506040513d601f19601f820116820180604052508101906104d49190611292565b156104e2576104e282610d6b565b5050565b600082815260046020526040902060050154829061051f5760405162461bcd60e51b8152600401610516906112b4565b60405180910390fd5b6001600160a01b0382166000908152600360205260408120905b815481101561074b576000858152600460205260409020600501548254839083908110610568576105686112f9565b9060005260206000209060080201600501541415610739578154829061059090600190611325565b815481106105a0576105a06112f9565b90600052602060002090600802018282815481106105c0576105c06112f9565b60009182526020909120825460089092020180546001600160a01b039283166001600160a01b03199182161782556001808501549083018054918516918316919091179055600280850154908301805491909416911617909155600380830154908201556004808301549082015560058083015490820155600680830180549183019161064c90611257565b610657929190610e3b565b506007918201805491909201805460ff19811660ff93841615159081178355845461ffff1990921661ff001990911617610100918290048416151590910217808255925462ff0000199093166201000093849004909216151590920217905581548290806106c7576106c761133c565b60008281526020812060086000199093019283020180546001600160a01b03199081168255600182018054821690556002820180549091169055600381018290556004810182905560058101829055906107246006830182610ec6565b50600701805462ffffff19169055905561074b565b8061074381611352565b915050610539565b506000848152600460208190526040822080546001600160a01b031990811682556001820180548216905560028201805490911690556003810183905590810182905560058101829055906107a36006830182610ec6565b50600701805462ffffff1916905560408051428152602081018690527fc0590c5a8ce79dffbdde17480a06203778f954965615e1d9577dbc90da2ff109910160405180910390a150505050565b6005602052600090815260409020805461080990611257565b80601f016020809104026020016040519081016040528092919081815260200182805461083590611257565b80156108825780601f1061085757610100808354040283529160200191610882565b820191906000526020600020905b81548152906001019060200180831161086557829003601f168201915b505050505081565b60008481526004602052604090206005015484906108ba5760405162461bcd60e51b8152600401610516906112b4565b600085815260046020526040902060070154859060ff166108ed5760405162461bcd60e51b81526004016105169061136d565b60025460405163e30bb56360e01b81526004810186905285916001600160a01b03169063e30bb5639060240160206040518083038186803b15801561093157600080fd5b505afa158015610945573d6000803e3d6000fd5b505050506040513d601f19601f820116820180604052508101906109699190611292565b6109855760405162461bcd60e51b8152600401610516906113b2565b600087815260046020908152604080832060058352922088516109aa928a0190610f03565b5084516109c09060068301906020880190610f03565b5060078101805462ff00ff191662010000179055600181015481546040516001600160a01b039283169291909116907f49b14f0f070a3ee416375df5ce617d319cb99defd5cf6a3666e87d1c84b0fd0190610a229042908c908b908f9061140f565b60405180910390a35050505050505050565b60025460405163e30bb56360e01b81526004810183905282916001600160a01b03169063e30bb5639060240160206040518083038186803b158015610a7857600080fd5b505afa158015610a8c573d6000803e3d6000fd5b505050506040513d601f19601f82011682018060405250810190610ab09190611292565b610acc5760405162461bcd60e51b8152600401610516906113b2565b60004342604051602001610aea929190918252602082015260400190565b60408051601f198184030181528282528051602091820120610140840183526001600160a01b03808c168552338584018181528b8316878701908152606088018c8152608089018f815260a08a018781528951808a018b52600080825260c08d01918252600160e08e018190526101008e018290526101208e018290529781526003808c529b81208054808a018255908252908b90208d516008909202018054918a166001600160a01b031992831617815596519787018054988a169882169890981790975593516002860180549190981696169590951790955551968201969096559151600483015551600582015592518051919550849392610bf692600685019290910190610f03565b5060e08201516007919091018054610100808501516101209095015161ffff1990921693151561ff001916939093179315159092029290921762ff000019166201000091151591909102179055600082815260046020818152604092839020845181546001600160a01b03199081166001600160a01b03928316178355868401516001840180548316918416919091179055948601516002830180549096169116179093556060840151600384015560808401519183019190915560a0830151600583015560c08301518051849392610cd6926006850192910190610f03565b5060e08201516007919091018054610100808501516101209095015161ffff1990921693151561ff001916939093179315159092029290921762ff0000191662010000911515919091021790556040518281526001600160a01b038916907f1dc05c1d6a563dddb6c22082af72b54ec2f0207ceb55db5d13cdabc208f303a99060200160405180910390a25050505050505050565b6000818152600460205260409020600501548190610d9b5760405162461bcd60e51b8152600401610516906112b4565b600082815260046020526040902060070154829062010000900460ff16610dd45760405162461bcd60e51b81526004016105169061136d565b60008381526004602052604090819020600701805462ffff001916610100179055517f58728757760eca19aa3c302e68c389bd70176e63fe4c447609f193e66c5e99c890610e2e9042908690918252602082015260400190565b60405180910390a1505050565b828054610e4790611257565b90600052602060002090601f016020900481019282610e695760008555610eb6565b82601f10610e7a5780548555610eb6565b82800160010185558215610eb657600052602060002091601f016020900482015b82811115610eb6578254825591600101919060010190610e9b565b50610ec2929150610f77565b5090565b508054610ed290611257565b6000825580601f10610ee2575050565b601f016020900490600052602060002090810190610f009190610f77565b50565b828054610f0f90611257565b90600052602060002090601f016020900481019282610f315760008555610eb6565b82601f10610f4a57805160ff1916838001178555610eb6565b82800160010185558215610eb6579182015b82811115610eb6578251825591602001919060010190610f5c565b5b80821115610ec25760008155600101610f78565b600060208284031215610f9e57600080fd5b5035919050565b6000815180845260005b81811015610fcb57602081850181015186830182015201610faf565b81811115610fdd576000602083870101525b50601f01601f19169290920160200192915050565b6001600160a01b038b811682528a8116602083015289166040820152606081018890526080810187905260a0810186905261014060c0820181905260009061103c83820188610fa5565b95151560e08401525050911515610100830152151561012090910152979650505050505050565b80356001600160a01b038116811461107a57600080fd5b919050565b6000806040838503121561109257600080fd5b61109b83611063565b946020939093013593505050565b600080604083850312156110bc57600080fd5b823591506110cc60208401611063565b90509250929050565b6020815260006110e86020830184610fa5565b9392505050565b634e487b7160e01b600052604160045260246000fd5b600082601f83011261111657600080fd5b813567ffffffffffffffff80821115611131576111316110ef565b604051601f8301601f19908116603f01168101908282118183101715611159576111596110ef565b8160405283815286602085880101111561117257600080fd5b836020870160208301376000602085830101528094505050505092915050565b600080600080608085870312156111a857600080fd5b84359350602085013567ffffffffffffffff808211156111c757600080fd5b6111d388838901611105565b94506040870135935060608701359150808211156111f057600080fd5b506111fd87828801611105565b91505092959194509250565b600080600080600060a0868803121561122157600080fd5b61122a86611063565b94506020860135935061123f60408701611063565b94979396509394606081013594506080013592915050565b600181811c9082168061126b57607f821691505b6020821081141561128c57634e487b7160e01b600052602260045260246000fd5b50919050565b6000602082840312156112a457600080fd5b815180151581146110e857600080fd5b60208082526025908201527f596f752063616e206f706572617465206f6e6c79206578697374656420636f6e6040820152641d1c9858dd60da1b606082015260800190565b634e487b7160e01b600052603260045260246000fd5b634e487b7160e01b600052601160045260246000fd5b6000828210156113375761133761130f565b500390565b634e487b7160e01b600052603160045260246000fd5b60006000198214156113665761136661130f565b5060010190565b60208082526025908201527f4f6e6c7920736574746c656420636f6e74726163742063616e206265206d6f646040820152641a599a595960da1b606082015260800190565b60208082526037908201527f4f7070732e204c6f6f6b73206c696b652074686973206163636f756e74206e6f60408201527f74206174746573746564206f6e20636861696e20796574000000000000000000606082015260800190565b8481526080602082015260006114286080830186610fa5565b828103604084015261143a8186610fa5565b9150508260608301529594505050505056fea2646970667358221220916c7139fa85dfea26332f68a9d9bf4dfecfb1fd22e1a122d27f1c2277aad15064736f6c63430008090033",
  "linkReferences": {},
  "deployedLinkReferences": {}
}